{
  "contractName": "TCR",
  "abi": [
    {
      "constant": true,
      "inputs": [
        {
          "name": "index",
          "type": "uint8"
        },
        {
          "name": "statementHash",
          "type": "bytes32"
        }
      ],
      "name": "getChallenge",
      "outputs": [
        {
          "name": "challenger",
          "type": "address"
        },
        {
          "name": "dateChallenged",
          "type": "uint256"
        },
        {
          "name": "challengerDispensed",
          "type": "bool"
        },
        {
          "name": "listerDispensed",
          "type": "bool"
        },
        {
          "name": "votesYes",
          "type": "uint256"
        },
        {
          "name": "votesNo",
          "type": "uint256"
        },
        {
          "name": "votesLength",
          "type": "uint256"
        },
        {
          "name": "exists",
          "type": "bool"
        }
      ],
      "payable": false,
      "stateMutability": "view",
      "type": "function"
    },
    {
      "constant": false,
      "inputs": [
        {
          "name": "statementHash",
          "type": "bytes32"
        }
      ],
      "name": "initiateChallenge",
      "outputs": [],
      "payable": false,
      "stateMutability": "nonpayable",
      "type": "function"
    },
    {
      "constant": true,
      "inputs": [
        {
          "name": "statementHash",
          "type": "bytes32"
        }
      ],
      "name": "isApproved",
      "outputs": [
        {
          "name": "approved",
          "type": "bool"
        }
      ],
      "payable": false,
      "stateMutability": "view",
      "type": "function"
    },
    {
      "constant": false,
      "inputs": [
        {
          "name": "statementHash",
          "type": "bytes32"
        },
        {
          "name": "votedYes",
          "type": "bool"
        },
        {
          "name": "amount",
          "type": "uint256"
        }
      ],
      "name": "castVote",
      "outputs": [],
      "payable": false,
      "stateMutability": "nonpayable",
      "type": "function"
    },
    {
      "constant": true,
      "inputs": [
        {
          "name": "statementHash",
          "type": "bytes32"
        }
      ],
      "name": "isChallenged",
      "outputs": [
        {
          "name": "",
          "type": "bool"
        }
      ],
      "payable": false,
      "stateMutability": "view",
      "type": "function"
    },
    {
      "constant": true,
      "inputs": [
        {
          "name": "index",
          "type": "uint8"
        }
      ],
      "name": "getEntry",
      "outputs": [
        {
          "name": "statementHash",
          "type": "bytes32"
        },
        {
          "name": "statement",
          "type": "string"
        },
        {
          "name": "lister",
          "type": "address"
        },
        {
          "name": "dateAdded",
          "type": "uint256"
        },
        {
          "name": "challengeKeysLength",
          "type": "uint256"
        },
        {
          "name": "exists",
          "type": "bool"
        }
      ],
      "payable": false,
      "stateMutability": "view",
      "type": "function"
    },
    {
      "constant": false,
      "inputs": [
        {
          "name": "statementHash",
          "type": "bytes32"
        },
        {
          "name": "challengeDate",
          "type": "uint256"
        }
      ],
      "name": "dispense",
      "outputs": [],
      "payable": false,
      "stateMutability": "nonpayable",
      "type": "function"
    },
    {
      "constant": true,
      "inputs": [],
      "name": "getListLength",
      "outputs": [
        {
          "name": "whitelistKeysLength",
          "type": "uint256"
        }
      ],
      "payable": false,
      "stateMutability": "view",
      "type": "function"
    },
    {
      "constant": false,
      "inputs": [
        {
          "name": "statement",
          "type": "string"
        }
      ],
      "name": "applyToList",
      "outputs": [],
      "payable": false,
      "stateMutability": "nonpayable",
      "type": "function"
    },
    {
      "constant": true,
      "inputs": [
        {
          "name": "statementHash",
          "type": "bytes32"
        },
        {
          "name": "challengeDate",
          "type": "uint256"
        }
      ],
      "name": "getVotes",
      "outputs": [
        {
          "name": "amount",
          "type": "uint256"
        },
        {
          "name": "dispensed",
          "type": "bool"
        },
        {
          "name": "votedYes",
          "type": "bool"
        },
        {
          "name": "exists",
          "type": "bool"
        }
      ],
      "payable": false,
      "stateMutability": "view",
      "type": "function"
    },
    {
      "inputs": [
        {
          "name": "tokenAddress",
          "type": "address"
        }
      ],
      "payable": false,
      "stateMutability": "nonpayable",
      "type": "constructor"
    }
  ],
  "bytecode": "0x606060405261012c60025560786003556005600460006101000a81548160ff021916908360ff1602179055506005600460016101000a81548160ff021916908360ff1602179055506032600555620186a0600655341561005e57600080fd5b6040516020806123018339810160405280805190602001909190505080600460026101000a81548173ffffffffffffffffffffffffffffffffffffffff021916908373ffffffffffffffffffffffffffffffffffffffff16021790555050612236806100cb6000396000f3006060604052600436106100a4576000357c0100000000000000000000000000000000000000000000000000000000900463ffffffff168063022c9893146100a95780632782e87e1461015957806348aefc32146101805780636fc42b36146101bf57806388730724146101fa57806389cd3d0e14610239578063b62c49a214610333578063b65c531b14610363578063c59b1f8c1461038c578063fc1664df146103e9575b600080fd5b34156100b457600080fd5b6100da600480803560ff169060200190919080356000191690602001909190505061044e565b604051808973ffffffffffffffffffffffffffffffffffffffff1673ffffffffffffffffffffffffffffffffffffffff1681526020018881526020018715151515815260200186151515158152602001858152602001848152602001838152602001821515151581526020019850505050505050505060405180910390f35b341561016457600080fd5b61017e600480803560001916906020019091905050610546565b005b341561018b57600080fd5b6101a56004808035600019169060200190919050506109ec565b604051808215151515815260200191505060405180910390f35b34156101ca57600080fd5b6101f86004808035600019169060200190919080351515906020019091908035906020019091905050610ae8565b005b341561020557600080fd5b61021f6004808035600019169060200190919050506110ae565b604051808215151515815260200191505060405180910390f35b341561024457600080fd5b61025d600480803560ff16906020019091905050611122565b604051808760001916600019168152602001806020018673ffffffffffffffffffffffffffffffffffffffff1673ffffffffffffffffffffffffffffffffffffffff16815260200185815260200184815260200183151515158152602001828103825287818151815260200191508051906020019080838360005b838110156102f35780820151818401526020810190506102d8565b50505050905090810190601f1680156103205780820380516001836020036101000a031916815260200191505b5097505050505050505060405180910390f35b341561033e57600080fd5b61036160048080356000191690602001909190803590602001909190505061126d565b005b341561036e57600080fd5b610376611adf565b6040518082815260200191505060405180910390f35b341561039757600080fd5b6103e7600480803590602001908201803590602001908080601f01602080910402602001604051908101604052809392919081815260200183838082843782019150505050505091905050611aec565b005b34156103f457600080fd5b610417600480803560001916906020019091908035906020019091905050611fd5565b6040518085815260200184151515158152602001831515151581526020018215151515815260200194505050505060405180910390f35b60008060008060008060008060008060008060008d600019166000191681526020019081526020016000209250826004018d60ff1681548110151561048f57fe5b906000526020600020900154915082600301600083815260200190815260200160002090508060000160019054906101000a900473ffffffffffffffffffffffffffffffffffffffff1681600101548260020160009054906101000a900460ff168360020160019054906101000a900460ff168460050154856006015486600401805490508760000160009054906101000a900460ff169a509a509a509a509a509a509a509a505050509295985092959890939650565b6000600460019054906101000a900460ff1660ff16600460029054906101000a900473ffffffffffffffffffffffffffffffffffffffff1673ffffffffffffffffffffffffffffffffffffffff1663dd62ed3e33306000604051602001526040518363ffffffff167c0100000000000000000000000000000000000000000000000000000000028152600401808373ffffffffffffffffffffffffffffffffffffffff1673ffffffffffffffffffffffffffffffffffffffff1681526020018273ffffffffffffffffffffffffffffffffffffffff1673ffffffffffffffffffffffffffffffffffffffff16815260200192505050602060405180830381600087803b151561065457600080fd5b6102c65a03f1151561066557600080fd5b50505060405180519050101561067a57600080fd5b600460019054906101000a900460ff1660ff16600460029054906101000a900473ffffffffffffffffffffffffffffffffffffffff1673ffffffffffffffffffffffffffffffffffffffff166370a08231336000604051602001526040518263ffffffff167c0100000000000000000000000000000000000000000000000000000000028152600401808273ffffffffffffffffffffffffffffffffffffffff1673ffffffffffffffffffffffffffffffffffffffff168152602001915050602060405180830381600087803b151561075257600080fd5b6102c65a03f1151561076357600080fd5b50505060405180519050101561077857600080fd5b600460029054906101000a900473ffffffffffffffffffffffffffffffffffffffff1673ffffffffffffffffffffffffffffffffffffffff166323b872dd3330600460019054906101000a900460ff166000604051602001526040518463ffffffff167c0100000000000000000000000000000000000000000000000000000000028152600401808473ffffffffffffffffffffffffffffffffffffffff1673ffffffffffffffffffffffffffffffffffffffff1681526020018373ffffffffffffffffffffffffffffffffffffffff1673ffffffffffffffffffffffffffffffffffffffff1681526020018260ff1681526020019350505050602060405180830381600087803b151561088b57600080fd5b6102c65a03f1151561089c57600080fd5b5050506040518051905015156108b157600080fd5b429050600080836000191660001916815260200190815260200160002060040180548060010182816108e391906120a5565b91600052602060002090016000839091909150555060016000808460001916600019168152602001908152602001600020600301600083815260200190815260200160002060000160006101000a81548160ff021916908315150217905550336000808460001916600019168152602001908152602001600020600301600083815260200190815260200160002060000160016101000a81548173ffffffffffffffffffffffffffffffffffffffff021916908373ffffffffffffffffffffffffffffffffffffffff1602179055508060008084600019166000191681526020019081526020016000206003016000838152602001908152602001600020600101819055505050565b600080600080600080866000191660001916815260200190815260200160002092508260000160009054906101000a900460ff161515610a2f5760009350610ae0565b42600254846002015401101515610a495760009350610ae0565b610a52856110ae565b15610a605760009350610ae0565b826004016001846004018054905003815481101515610a7b57fe5b9060005260206000209001549150826003016000838152602001908152602001600020905060008160040180549050118015610abe575080600501548160060154115b8015610acd5750826002015482115b15610adb5760009350610ae0565b600193505b505050919050565b6000806000610af56120d1565b610afe876110ae565b1515610b0957600080fd5b60008088600019166000191681526020019081526020016000209350836004016001856004018054905003815481101515610b4057fe5b906000526020600020900154925083600301600084815260200190815260200160002091508160030160003373ffffffffffffffffffffffffffffffffffffffff1673ffffffffffffffffffffffffffffffffffffffff16815260200190815260200160002060010160029054906101000a900460ff1615610bc157600080fd5b84600460029054906101000a900473ffffffffffffffffffffffffffffffffffffffff1673ffffffffffffffffffffffffffffffffffffffff1663dd62ed3e33306000604051602001526040518363ffffffff167c0100000000000000000000000000000000000000000000000000000000028152600401808373ffffffffffffffffffffffffffffffffffffffff1673ffffffffffffffffffffffffffffffffffffffff1681526020018273ffffffffffffffffffffffffffffffffffffffff1673ffffffffffffffffffffffffffffffffffffffff16815260200192505050602060405180830381600087803b1515610cbb57600080fd5b6102c65a03f11515610ccc57600080fd5b505050604051805190501015610ce157600080fd5b84600460029054906101000a900473ffffffffffffffffffffffffffffffffffffffff1673ffffffffffffffffffffffffffffffffffffffff166370a08231336000604051602001526040518263ffffffff167c0100000000000000000000000000000000000000000000000000000000028152600401808273ffffffffffffffffffffffffffffffffffffffff1673ffffffffffffffffffffffffffffffffffffffff168152602001915050602060405180830381600087803b1515610da757600080fd5b6102c65a03f11515610db857600080fd5b505050604051805190501015610dcd57600080fd5b600460029054906101000a900473ffffffffffffffffffffffffffffffffffffffff1673ffffffffffffffffffffffffffffffffffffffff166323b872dd3330886000604051602001526040518463ffffffff167c0100000000000000000000000000000000000000000000000000000000028152600401808473ffffffffffffffffffffffffffffffffffffffff1673ffffffffffffffffffffffffffffffffffffffff1681526020018373ffffffffffffffffffffffffffffffffffffffff1673ffffffffffffffffffffffffffffffffffffffff1681526020018281526020019350505050602060405180830381600087803b1515610ece57600080fd5b6102c65a03f11515610edf57600080fd5b505050604051805190501515610ef457600080fd5b600181606001901515908115158152505085816040019015159081151581525050848160000181815250506000816020019015159081151581525050806000808960001916600019168152602001908152602001600020600301600085815260200190815260200160002060030160003373ffffffffffffffffffffffffffffffffffffffff1673ffffffffffffffffffffffffffffffffffffffff1681526020019081526020016000206000820151816000015560208201518160010160006101000a81548160ff02191690831515021790555060408201518160010160016101000a81548160ff02191690831515021790555060608201518160010160026101000a81548160ff0219169083151502179055509050508561101857600061101a565b845b60008089600019166000191681526020019081526020016000206003016000858152602001908152602001600020600501600082825401925050819055508515611065576000611067565b845b600080896000191660001916815260200190815260200160002060030160008581526020019081526020016000206006016000828254019250508190555050505050505050565b6000806000806000856000191660001916815260200190815260200160002091506000826004018054905014156110e8576000925061111b565b81600401600183600401805490500381548110151561110357fe5b90600052602060002090015490504260035482011192505b5050919050565b600061112c612100565b60008060008060008060018960ff1681548110151561114757fe5b90600052602060002090015491506000808360001916600019168152602001908152602001600020905081816001018260000160019054906101000a900473ffffffffffffffffffffffffffffffffffffffff16836002015484600401805490508560000160009054906101000a900460ff16848054600181600116156101000203166002900480601f01602080910402602001604051908101604052809291908181526020018280546001816001161561010002031660029004801561124f5780601f106112245761010080835404028352916020019161124f565b820191906000526020600020905b81548152906001019060200180831161123257829003601f168201915b50505050509450975097509750975097509750505091939550919395565b6000806000806000806000806000806000426003548d0110151561129057600080fd5b6000808e600019166000191681526020019081526020016000209a508a60030160008d815260200190815260200160002099508960030160003373ffffffffffffffffffffffffffffffffffffffff1673ffffffffffffffffffffffffffffffffffffffff168152602001908152602001600020985089600601548a600501541015156116eb578960060154600460019054906101000a900460ff1660ff160197506064600554890281151561134257fe5b0496508860010160029054906101000a900460ff16801561137257508860010160009054906101000a900460ff16155b801561138c57508860010160019054906101000a900460ff165b1561153e5789600501548960000154600654028115156113a857fe5b04955060065487890387028115156113bc57fe5b048960000154019450600460029054906101000a900473ffffffffffffffffffffffffffffffffffffffff1673ffffffffffffffffffffffffffffffffffffffff1663a9059cbb33876000604051602001526040518363ffffffff167c0100000000000000000000000000000000000000000000000000000000028152600401808373ffffffffffffffffffffffffffffffffffffffff1673ffffffffffffffffffffffffffffffffffffffff16815260200182815260200192505050602060405180830381600087803b151561149257600080fd5b6102c65a03f115156114a357600080fd5b505050604051805190501561153d5760016000808f6000191660001916815260200190815260200160002060030160008e815260200190815260200160002060030160003373ffffffffffffffffffffffffffffffffffffffff1673ffffffffffffffffffffffffffffffffffffffff16815260200190815260200160002060010160006101000a81548160ff0219169083151502179055505b5b8960020160019054906101000a900460ff161580156115ac57503373ffffffffffffffffffffffffffffffffffffffff168b60000160019054906101000a900473ffffffffffffffffffffffffffffffffffffffff1673ffffffffffffffffffffffffffffffffffffffff16145b156116ea57600460029054906101000a900473ffffffffffffffffffffffffffffffffffffffff1673ffffffffffffffffffffffffffffffffffffffff1663a9059cbb33896000604051602001526040518363ffffffff167c0100000000000000000000000000000000000000000000000000000000028152600401808373ffffffffffffffffffffffffffffffffffffffff1673ffffffffffffffffffffffffffffffffffffffff16815260200182815260200192505050602060405180830381600087803b151561167e57600080fd5b6102c65a03f1151561168f57600080fd5b50505060405180519050156116e95760016000808f6000191660001916815260200190815260200160002060030160008e815260200190815260200160002060020160016101000a81548160ff0219169083151502179055505b5b5b89600601548a600501541015611ad0578960050154600460009054906101000a900460ff1660ff160193506064600554850281151561172657fe5b0492508860010160029054906101000a900460ff16801561175657508860010160009054906101000a900460ff16155b801561177157508860010160019054906101000a900460ff16155b1561192357896005015489600001546006540281151561178d57fe5b04915060065483850383028115156117a157fe5b048960000154019050600460029054906101000a900473ffffffffffffffffffffffffffffffffffffffff1673ffffffffffffffffffffffffffffffffffffffff1663a9059cbb33836000604051602001526040518363ffffffff167c0100000000000000000000000000000000000000000000000000000000028152600401808373ffffffffffffffffffffffffffffffffffffffff1673ffffffffffffffffffffffffffffffffffffffff16815260200182815260200192505050602060405180830381600087803b151561187757600080fd5b6102c65a03f1151561188857600080fd5b50505060405180519050156119225760016000808f6000191660001916815260200190815260200160002060030160008e815260200190815260200160002060030160003373ffffffffffffffffffffffffffffffffffffffff1673ffffffffffffffffffffffffffffffffffffffff16815260200190815260200160002060010160006101000a81548160ff0219169083151502179055505b5b8960020160009054906101000a900460ff1615801561199157503373ffffffffffffffffffffffffffffffffffffffff168a60000160019054906101000a900473ffffffffffffffffffffffffffffffffffffffff1673ffffffffffffffffffffffffffffffffffffffff16145b15611acf57600460029054906101000a900473ffffffffffffffffffffffffffffffffffffffff1673ffffffffffffffffffffffffffffffffffffffff1663a9059cbb33856000604051602001526040518363ffffffff167c0100000000000000000000000000000000000000000000000000000000028152600401808373ffffffffffffffffffffffffffffffffffffffff1673ffffffffffffffffffffffffffffffffffffffff16815260200182815260200192505050602060405180830381600087803b1515611a6357600080fd5b6102c65a03f11515611a7457600080fd5b5050506040518051905015611ace5760016000808f6000191660001916815260200190815260200160002060030160008e815260200190815260200160002060020160006101000a81548160ff0219169083151502179055505b5b5b50505050505050505050505050565b6000600180549050905090565b6000600460009054906101000a900460ff1660ff16600460029054906101000a900473ffffffffffffffffffffffffffffffffffffffff1673ffffffffffffffffffffffffffffffffffffffff1663dd62ed3e33306000604051602001526040518363ffffffff167c0100000000000000000000000000000000000000000000000000000000028152600401808373ffffffffffffffffffffffffffffffffffffffff1673ffffffffffffffffffffffffffffffffffffffff1681526020018273ffffffffffffffffffffffffffffffffffffffff1673ffffffffffffffffffffffffffffffffffffffff16815260200192505050602060405180830381600087803b1515611bfa57600080fd5b6102c65a03f11515611c0b57600080fd5b505050604051805190501015611c2057600080fd5b600460009054906101000a900460ff1660ff16600460029054906101000a900473ffffffffffffffffffffffffffffffffffffffff1673ffffffffffffffffffffffffffffffffffffffff166370a08231336000604051602001526040518263ffffffff167c0100000000000000000000000000000000000000000000000000000000028152600401808273ffffffffffffffffffffffffffffffffffffffff1673ffffffffffffffffffffffffffffffffffffffff168152602001915050602060405180830381600087803b1515611cf857600080fd5b6102c65a03f11515611d0957600080fd5b505050604051805190501015611d1e57600080fd5b600460029054906101000a900473ffffffffffffffffffffffffffffffffffffffff1673ffffffffffffffffffffffffffffffffffffffff166323b872dd3330600460009054906101000a900460ff166000604051602001526040518463ffffffff167c0100000000000000000000000000000000000000000000000000000000028152600401808473ffffffffffffffffffffffffffffffffffffffff1673ffffffffffffffffffffffffffffffffffffffff1681526020018373ffffffffffffffffffffffffffffffffffffffff1673ffffffffffffffffffffffffffffffffffffffff1681526020018260ff1681526020019350505050602060405180830381600087803b1515611e3157600080fd5b6102c65a03f11515611e4257600080fd5b505050604051805190501515611e5757600080fd5b816040518082805190602001908083835b602083101515611e8d5780518252602082019150602081019050602083039250611e68565b6001836020036101000a038019825116818451168082178552505050505050905001915050604051809103902090506001600080836000191660001916815260200190815260200160002060000160006101000a81548160ff021916908315150217905550426000808360001916600019168152602001908152602001600020600201819055508160008083600019166000191681526020019081526020016000206001019080519060200190611f45929190612114565b5033600080836000191660001916815260200190815260200160002060000160016101000a81548173ffffffffffffffffffffffffffffffffffffffff021916908373ffffffffffffffffffffffffffffffffffffffff16021790555060018054806001018281611fb69190612194565b9160005260206000209001600083909190915090600019169055505050565b60008060008060008060008060008a60001916600019168152602001908152602001600020925082600301600089815260200190815260200160002091508160030160003373ffffffffffffffffffffffffffffffffffffffff1673ffffffffffffffffffffffffffffffffffffffff168152602001908152602001600020905080600001548160010160009054906101000a900460ff168260010160019054906101000a900460ff168360010160029054906101000a900460ff16965096509650965050505092959194509250565b8154818355818115116120cc578183600052602060002091820191016120cb91906121c0565b5b505050565b608060405190810160405280600081526020016000151581526020016000151581526020016000151581525090565b602060405190810160405280600081525090565b828054600181600116156101000203166002900490600052602060002090601f016020900481019282601f1061215557805160ff1916838001178555612183565b82800160010185558215612183579182015b82811115612182578251825591602001919060010190612167565b5b50905061219091906121c0565b5090565b8154818355818115116121bb578183600052602060002091820191016121ba91906121e5565b5b505050565b6121e291905b808211156121de5760008160009055506001016121c6565b5090565b90565b61220791905b808211156122035760008160009055506001016121eb565b5090565b905600a165627a7a72305820e77bb7cccc7b4ad12330608ac0a7b0668377f653fa3ffc7033a1ed86071e36df0029",
  "source": "\npragma solidity ^0.4.17;\nimport '../installed_contracts/zeppelin/contracts/token/ERC20.sol';\n\n// ACTORS\n// Lister     = person who submitted an item to the list\n// Challenger = person who has challenged an item in the list\n// Voter      = person who has challenged an item on the list\n// voteYes    = a vote in favor of the challenge\n// voteNo     = a vote against the challenge \n\ncontract TCR {\n\n  // DATA STRUCTURES\n\n  // A mapping of statement hashes to statements and their metadata\n  mapping(bytes32 => Entry) whitelist;\n  // Array of keys to whitelist for iteration\n  bytes32[] whitelistKeys;\n  \n  struct Entry {\n    bool exists;\n    \n    address lister;\n    string statement;\n    uint256 dateAdded;\n    \n    mapping(uint256 => Challenge) challenges;\n    uint256[] challengeKeys;\n  }\n\n  struct Challenge {\n    bool exists;\n\n    address challenger;\n    uint256 dateChallenged;\n    \n    bool challengerDispensed;\n    bool listerDispensed;\n    \n    mapping(address => Vote) votes;\n    address[] voteKeys;\n    \n    uint256 votesYes;\n    uint256 votesNo;\n  }\n\n  struct Vote {\n    uint256 amount;\n    bool dispensed;\n    bool votedYes;\n    bool exists;\n  }\n \n\n  // PARAMETERS\n  \n  // uint256 waitPeriod = (60 * 60) * 48;\n  uint256 waitPeriod = (60 * 5);\n  uint256 challengePeriod = (60 * 2);\n  uint8 applicationDeposit = 5;\n  uint8 challengeDeposit = 5;\n  ERC20 token;\n  \n  uint256 dispensionPercent = 50;\n  uint256 precisionMultiplier = 1000 * 100; // does this even make sense?\n\n\n  // CONSTRUCTOR\n\n  function TCR (address tokenAddress) public {\n    token = ERC20(tokenAddress);\n  }\n\n  \n  // CONSTANT FUNCTIONS\n  \n  // Check whether entry is approved\n  function isApproved (bytes32 statementHash) public constant returns(bool approved) {\n    Entry storage entry = whitelist[statementHash];\n\n    // Check if entry exists\n    if (!entry.exists) return false;\n\n    // Check if application period has ended\n    if (entry.dateAdded + waitPeriod >= now) return false; // double check timing math eventually\n    \n    // Check if entry is currently being challenged\n    if (isChallenged(statementHash)) return false;\n    \n    // If the entry has been challenged, the challenge succeeded, and that challenge is relevant to the current entry (in the case of re-application)\n    uint256 mostRecentChallengeDate = entry.challengeKeys[entry.challengeKeys.length - 1];\n    Challenge storage challenge = entry.challenges[mostRecentChallengeDate];\n\n    if ((challenge.voteKeys.length > 0) && (challenge.votesNo > challenge.votesYes) && (mostRecentChallengeDate > entry.dateAdded)) return false;\n\n    return true;\n  }\n\n  // Check whether entry is challenged \n  function isChallenged (bytes32 statementHash) public constant returns (bool) {\n    Entry storage entry = whitelist[statementHash];\n\n    // If there are no challenges, return false\n    if (entry.challengeKeys.length == 0) return false;\n  \n    // Check if most recent challenge start date is currently within the challenge period\n    uint256 mostRecentChallengeDate = entry.challengeKeys[entry.challengeKeys.length - 1];\n    return (mostRecentChallengeDate + challengePeriod) > now;\n  }\n\n  function getListLength () public constant returns (uint256 whitelistKeysLength) {\n    return whitelistKeys.length;\n  }\n\n  function getEntry (uint8 index) public constant returns (bytes32 statementHash,\n    string statement,\n    address lister,\n    uint256 dateAdded,\n    uint256 challengeKeysLength,\n    bool exists\n  ) {\n\n    bytes32 _statementHash = whitelistKeys[index];\n    Entry storage entry = whitelist[_statementHash];\n    \n    return (_statementHash,\n            entry.statement,\n            entry.lister,\n            entry.dateAdded,\n            entry.challengeKeys.length,\n            entry.exists\n    );\n  }\n\n  function getChallenge (uint8 index, bytes32 statementHash) public constant returns (\n    address challenger,\n    uint256 dateChallenged,\n    bool challengerDispensed,\n    bool listerDispensed,\n    uint256 votesYes,\n    uint256 votesNo, \n    uint256 votesLength,\n    bool exists\n    ) {\n    \n    Entry storage entry = whitelist[statementHash]; \n    uint256 challengeDate = entry.challengeKeys[index];\n    Challenge storage challenge = entry.challenges[challengeDate];\n\n    return (challenge.challenger,\n            challenge.dateChallenged,\n            challenge.challengerDispensed,\n            challenge.listerDispensed,\n            challenge.votesYes,\n            challenge.votesNo,\n            challenge.voteKeys.length,\n            challenge.exists\n    );\n  }\n\n  function getVotes (bytes32 statementHash, uint256 challengeDate) public constant returns (uint256 amount, bool dispensed, bool votedYes, bool exists) {\n    Entry storage entry = whitelist[statementHash];\n    Challenge storage challenge = entry.challenges[challengeDate];\n    Vote storage vote = challenge.votes[msg.sender];\n\n    return (vote.amount,\n            vote.dispensed,\n            vote.votedYes,\n            vote.exists\n    );\n  }\n\n\n  // TRANSACTIONAL FUNCTIONS\n\n  // Apply to add a statement to the whitelist\n  function applyToList (string statement) public {\n    // If msg.sender has enough funds\n    if (token.allowance(msg.sender, address(this)) < applicationDeposit) revert();\n    if (token.balanceOf(msg.sender) < applicationDeposit) revert();\n    if (!token.transferFrom(msg.sender, address(this), applicationDeposit)) revert();\n\n    bytes32 statementHash = keccak256(statement);\n\n    whitelist[statementHash].exists = true;\n    whitelist[statementHash].dateAdded = now;\n    whitelist[statementHash].statement = statement;\n    whitelist[statementHash].lister = msg.sender;\n\n    whitelistKeys.push(statementHash); // index mapping\n  }\n\n  // Initiate a challenge\n  function initiateChallenge (bytes32 statementHash) public {\n\n    if (token.allowance(msg.sender, address(this)) < challengeDeposit) revert();\n    if (token.balanceOf(msg.sender) < challengeDeposit) revert();\n    if (!token.transferFrom(msg.sender, address(this), challengeDeposit)) revert();\n    \n    uint256 dateChallenged = now;\n\n    whitelist[statementHash].challengeKeys.push(dateChallenged);\n\n    whitelist[statementHash].challenges[dateChallenged].exists = true;\n    whitelist[statementHash].challenges[dateChallenged].challenger = msg.sender;\n    whitelist[statementHash].challenges[dateChallenged].dateChallenged = dateChallenged;\n\n  }\n\n  function castVote (bytes32 statementHash, bool votedYes, uint256 amount) public {\n    if (!isChallenged(statementHash)) revert();\n\n    Entry storage entry = whitelist[statementHash];\n    uint256 mostRecentChallengeDate = entry.challengeKeys[entry.challengeKeys.length - 1];\n    Challenge storage challenge = entry.challenges[mostRecentChallengeDate];\n    \n    if (challenge.votes[msg.sender].exists) revert();\n    \n    if (token.allowance(msg.sender, address(this)) < amount) revert();\n    if (token.balanceOf(msg.sender) < amount) revert();\n    if (!token.transferFrom(msg.sender, address(this), amount)) revert(); \n\n    Vote memory vote; // storage or memory?\n\n    vote.exists = true;\n    vote.votedYes = votedYes;\n    vote.amount = amount;\n    vote.dispensed = false;\n\n    whitelist[statementHash].challenges[mostRecentChallengeDate].votes[msg.sender] = vote;\n    whitelist[statementHash].challenges[mostRecentChallengeDate].votesYes += votedYes ? amount : 0;\n    whitelist[statementHash].challenges[mostRecentChallengeDate].votesNo += !votedYes ? amount : 0;\n  }\n\n  // For a given challenge, pay out to the voters, challenger, and/or listers\n  function dispense (bytes32 statementHash, uint256 challengeDate) public {\n    if (challengeDate + challengePeriod >= now) revert(); \n    \n    Entry storage entry = whitelist[statementHash];\n    \n    Challenge storage challenge = entry.challenges[challengeDate];\n    \n    Vote storage vote = challenge.votes[msg.sender];\n\n    // VOTE YES\n\n    if (challenge.votesYes >= challenge.votesNo) {\n\n      // VOTER\n      uint256 totalRewardYes = challengeDeposit + challenge.votesNo;\n      uint256 listerReward = (totalRewardYes * dispensionPercent) / 100; // divide by 100 for percentage multiplication, replace with variable for precision?\n\n      // if voter vote was yes, withdraw if senders vote was not yet dispnsed\n      if (vote.exists && !vote.dispensed && vote.votedYes) {\n        \n        uint256 voterRewardProportionYes = (precisionMultiplier * vote.amount) / challenge.votesYes;\n        uint256 voterRewardYes = vote.amount + ((voterRewardProportionYes * (totalRewardYes - listerReward)) / precisionMultiplier);\n\n        if (token.transfer(msg.sender, voterRewardYes)) { \n          whitelist[statementHash].challenges[challengeDate].votes[msg.sender].dispensed = true;\n        }\n      }\n\n      // LISTER\n      \n      // if sender was lister and the challenge was unsuccessful, withdraw\n      if (!challenge.listerDispensed && (entry.lister == msg.sender)) {\n        \n        if (token.transfer(msg.sender, listerReward)) { \n          whitelist[statementHash].challenges[challengeDate].listerDispensed = true;\n        }\n\n      }\n    }\n\n    // NO\n    \n    if (challenge.votesYes < challenge.votesNo) {\n\n      uint256 totalRewardNo = applicationDeposit + challenge.votesYes;\n      uint256 challengerReward = (totalRewardNo * dispensionPercent) / 100; // divide by 100 for percentage multiplication, replace with variable for precision?\n\n      // VOTER\n      \n      // withdraw if senders vote was not yet dispensed, vote was no, and winning vote was no \n      if (vote.exists && !vote.dispensed && !vote.votedYes) {\n        \n        // calculate how much to withdraw, transfer, and mark as paid\n        uint256 voterRewardProportionNo = (precisionMultiplier * vote.amount) / challenge.votesYes;\n        uint256 voterRewardNo = vote.amount + ((voterRewardProportionNo * (totalRewardNo - challengerReward)) / precisionMultiplier);\n\n        if (token.transfer(msg.sender, voterRewardNo)) { \n          whitelist[statementHash].challenges[challengeDate].votes[msg.sender].dispensed = true;\n        }\n      }\n      \n      // CHALLENGER\n\n      // withdraw if challenge was not yet dispensed, sender was the challenger, and the challenge was successful\n      if (!challenge.challengerDispensed && (challenge.challenger == msg.sender)) {\n        if (token.transfer(msg.sender, challengerReward)) { \n          whitelist[statementHash].challenges[challengeDate].challengerDispensed = true;\n        }\n      }\n    } \n  }\n}",
  "sourcePath": "/Users/billy/vue/tcr/contracts/TCR.sol",
  "compiler": {
    "name": "solc",
    "version": "0.4.18+commit.9cf6e910.Emscripten.clang"
  },
  "schemaVersion": "1.0.1",
  "updatedAt": "2017-12-11T14:48:45.542Z"
}